{
  "contractName": "MyToken",
  "abi": [
    {
      "inputs": [],
      "stateMutability": "nonpayable",
      "type": "constructor"
    },
    {
      "anonymous": false,
      "inputs": [
        {
          "indexed": true,
          "internalType": "address",
          "name": "account",
          "type": "address"
        },
        {
          "indexed": true,
          "internalType": "address",
          "name": "operator",
          "type": "address"
        },
        {
          "indexed": false,
          "internalType": "bool",
          "name": "approved",
          "type": "bool"
        }
      ],
      "name": "ApprovalForAll",
      "type": "event"
    },
    {
      "anonymous": false,
      "inputs": [
        {
          "indexed": true,
          "internalType": "address",
          "name": "previousOwner",
          "type": "address"
        },
        {
          "indexed": true,
          "internalType": "address",
          "name": "newOwner",
          "type": "address"
        }
      ],
      "name": "OwnershipTransferred",
      "type": "event"
    },
    {
      "anonymous": false,
      "inputs": [
        {
          "indexed": true,
          "internalType": "address",
          "name": "operator",
          "type": "address"
        },
        {
          "indexed": true,
          "internalType": "address",
          "name": "from",
          "type": "address"
        },
        {
          "indexed": true,
          "internalType": "address",
          "name": "to",
          "type": "address"
        },
        {
          "indexed": false,
          "internalType": "uint256[]",
          "name": "ids",
          "type": "uint256[]"
        },
        {
          "indexed": false,
          "internalType": "uint256[]",
          "name": "values",
          "type": "uint256[]"
        }
      ],
      "name": "TransferBatch",
      "type": "event"
    },
    {
      "anonymous": false,
      "inputs": [
        {
          "indexed": true,
          "internalType": "address",
          "name": "operator",
          "type": "address"
        },
        {
          "indexed": true,
          "internalType": "address",
          "name": "from",
          "type": "address"
        },
        {
          "indexed": true,
          "internalType": "address",
          "name": "to",
          "type": "address"
        },
        {
          "indexed": false,
          "internalType": "uint256",
          "name": "id",
          "type": "uint256"
        },
        {
          "indexed": false,
          "internalType": "uint256",
          "name": "value",
          "type": "uint256"
        }
      ],
      "name": "TransferSingle",
      "type": "event"
    },
    {
      "anonymous": false,
      "inputs": [
        {
          "indexed": false,
          "internalType": "string",
          "name": "value",
          "type": "string"
        },
        {
          "indexed": true,
          "internalType": "uint256",
          "name": "id",
          "type": "uint256"
        }
      ],
      "name": "URI",
      "type": "event"
    },
    {
      "inputs": [
        {
          "internalType": "address",
          "name": "account",
          "type": "address"
        },
        {
          "internalType": "uint256",
          "name": "id",
          "type": "uint256"
        }
      ],
      "name": "balanceOf",
      "outputs": [
        {
          "internalType": "uint256",
          "name": "",
          "type": "uint256"
        }
      ],
      "stateMutability": "view",
      "type": "function"
    },
    {
      "inputs": [
        {
          "internalType": "address[]",
          "name": "accounts",
          "type": "address[]"
        },
        {
          "internalType": "uint256[]",
          "name": "ids",
          "type": "uint256[]"
        }
      ],
      "name": "balanceOfBatch",
      "outputs": [
        {
          "internalType": "uint256[]",
          "name": "",
          "type": "uint256[]"
        }
      ],
      "stateMutability": "view",
      "type": "function"
    },
    {
      "inputs": [
        {
          "internalType": "address",
          "name": "account",
          "type": "address"
        },
        {
          "internalType": "address",
          "name": "operator",
          "type": "address"
        }
      ],
      "name": "isApprovedForAll",
      "outputs": [
        {
          "internalType": "bool",
          "name": "",
          "type": "bool"
        }
      ],
      "stateMutability": "view",
      "type": "function"
    },
    {
      "inputs": [],
      "name": "mintRate",
      "outputs": [
        {
          "internalType": "uint256",
          "name": "",
          "type": "uint256"
        }
      ],
      "stateMutability": "view",
      "type": "function"
    },
    {
      "inputs": [
        {
          "internalType": "uint256",
          "name": "",
          "type": "uint256"
        }
      ],
      "name": "minted",
      "outputs": [
        {
          "internalType": "uint256",
          "name": "",
          "type": "uint256"
        }
      ],
      "stateMutability": "view",
      "type": "function"
    },
    {
      "inputs": [],
      "name": "owner",
      "outputs": [
        {
          "internalType": "address",
          "name": "",
          "type": "address"
        }
      ],
      "stateMutability": "view",
      "type": "function"
    },
    {
      "inputs": [],
      "name": "renounceOwnership",
      "outputs": [],
      "stateMutability": "nonpayable",
      "type": "function"
    },
    {
      "inputs": [
        {
          "internalType": "address",
          "name": "from",
          "type": "address"
        },
        {
          "internalType": "address",
          "name": "to",
          "type": "address"
        },
        {
          "internalType": "uint256[]",
          "name": "ids",
          "type": "uint256[]"
        },
        {
          "internalType": "uint256[]",
          "name": "amounts",
          "type": "uint256[]"
        },
        {
          "internalType": "bytes",
          "name": "data",
          "type": "bytes"
        }
      ],
      "name": "safeBatchTransferFrom",
      "outputs": [],
      "stateMutability": "nonpayable",
      "type": "function"
    },
    {
      "inputs": [
        {
          "internalType": "address",
          "name": "from",
          "type": "address"
        },
        {
          "internalType": "address",
          "name": "to",
          "type": "address"
        },
        {
          "internalType": "uint256",
          "name": "id",
          "type": "uint256"
        },
        {
          "internalType": "uint256",
          "name": "amount",
          "type": "uint256"
        },
        {
          "internalType": "bytes",
          "name": "data",
          "type": "bytes"
        }
      ],
      "name": "safeTransferFrom",
      "outputs": [],
      "stateMutability": "nonpayable",
      "type": "function"
    },
    {
      "inputs": [
        {
          "internalType": "address",
          "name": "operator",
          "type": "address"
        },
        {
          "internalType": "bool",
          "name": "approved",
          "type": "bool"
        }
      ],
      "name": "setApprovalForAll",
      "outputs": [],
      "stateMutability": "nonpayable",
      "type": "function"
    },
    {
      "inputs": [
        {
          "internalType": "uint256",
          "name": "",
          "type": "uint256"
        }
      ],
      "name": "supplies",
      "outputs": [
        {
          "internalType": "uint256",
          "name": "",
          "type": "uint256"
        }
      ],
      "stateMutability": "view",
      "type": "function"
    },
    {
      "inputs": [
        {
          "internalType": "bytes4",
          "name": "interfaceId",
          "type": "bytes4"
        }
      ],
      "name": "supportsInterface",
      "outputs": [
        {
          "internalType": "bool",
          "name": "",
          "type": "bool"
        }
      ],
      "stateMutability": "view",
      "type": "function"
    },
    {
      "inputs": [
        {
          "internalType": "address",
          "name": "newOwner",
          "type": "address"
        }
      ],
      "name": "transferOwnership",
      "outputs": [],
      "stateMutability": "nonpayable",
      "type": "function"
    },
    {
      "inputs": [
        {
          "internalType": "uint256",
          "name": "",
          "type": "uint256"
        }
      ],
      "name": "uri",
      "outputs": [
        {
          "internalType": "string",
          "name": "",
          "type": "string"
        }
      ],
      "stateMutability": "view",
      "type": "function"
    },
    {
      "inputs": [
        {
          "internalType": "string",
          "name": "newuri",
          "type": "string"
        }
      ],
      "name": "setURI",
      "outputs": [],
      "stateMutability": "nonpayable",
      "type": "function"
    },
    {
      "inputs": [
        {
          "internalType": "uint256",
          "name": "id",
          "type": "uint256"
        },
        {
          "internalType": "uint256",
          "name": "amount",
          "type": "uint256"
        }
      ],
      "name": "mint",
      "outputs": [],
      "stateMutability": "payable",
      "type": "function"
    }
  ],
  "bytecode": "0x60806040526611c37937e080006004556040518060600160405280600060ff168152602001600060ff168152602001600060ff16815250600590600362000048929190620001c3565b506040518060600160405280600a60ff168152602001600a60ff168152602001603260ff16815250600690600362000082929190620001c3565b503480156200009057600080fd5b5060405180602001604052806000815250620000b281620000d960201b60201c565b50620000d3620000c7620000f560201b60201c565b620000fd60201b60201c565b6200032f565b8060029080519060200190620000f19291906200021a565b5050565b600033905090565b6000600360009054906101000a900473ffffffffffffffffffffffffffffffffffffffff16905081600360006101000a81548173ffffffffffffffffffffffffffffffffffffffff021916908373ffffffffffffffffffffffffffffffffffffffff1602179055508173ffffffffffffffffffffffffffffffffffffffff168173ffffffffffffffffffffffffffffffffffffffff167f8be0079c531659141344cd1fd0a4f28419497f9722a3daafe3b4186f6b6457e060405160405180910390a35050565b82805482825590600052602060002090810192821562000207579160200282015b8281111562000206578251829060ff16905591602001919060010190620001e4565b5b509050620002169190620002ab565b5090565b8280546200022890620002f9565b90600052602060002090601f0160209004810192826200024c576000855562000298565b82601f106200026757805160ff191683800117855562000298565b8280016001018555821562000298579182015b82811115620002975782518255916020019190600101906200027a565b5b509050620002a79190620002ab565b5090565b5b80821115620002c6576000816000905550600101620002ac565b5090565b7f4e487b7100000000000000000000000000000000000000000000000000000000600052602260045260246000fd5b600060028204905060018216806200031257607f821691505b60208210811415620003295762000328620002ca565b5b50919050565b6132bc806200033f6000396000f3fe6080604052600436106100f25760003560e01c8063715018a61161008a578063ca0dcf1611610059578063ca0dcf161461033e578063e985e9c514610369578063f242432a146103a6578063f2fde38b146103cf576100f2565b8063715018a6146102965780637dc0bf3f146102ad5780638da5cb5b146102ea578063a22cb46514610315576100f2565b80631b2ef1ca116100c65780631b2ef1ca146101d757806326f1a1fd146101f35780632eb2c2d6146102305780634e1273f414610259576100f2565b8062fdd58e146100f757806301ffc9a71461013457806302fe5305146101715780630e89341c1461019a575b600080fd5b34801561010357600080fd5b5061011e60048036038101906101199190611c6e565b6103f8565b60405161012b9190611cbd565b60405180910390f35b34801561014057600080fd5b5061015b60048036038101906101569190611d30565b6104c1565b6040516101689190611d78565b60405180910390f35b34801561017d57600080fd5b5061019860048036038101906101939190611ed9565b6105a3565b005b3480156101a657600080fd5b506101c160048036038101906101bc9190611f22565b6105b7565b6040516101ce9190611fd7565b60405180910390f35b6101f160048036038101906101ec9190611ff9565b61064b565b005b3480156101ff57600080fd5b5061021a60048036038101906102159190611f22565b6107e7565b6040516102279190611cbd565b60405180910390f35b34801561023c57600080fd5b50610257600480360381019061025291906121a2565b61080b565b005b34801561026557600080fd5b50610280600480360381019061027b9190612334565b6108ac565b60405161028d919061246a565b60405180910390f35b3480156102a257600080fd5b506102ab6109c5565b005b3480156102b957600080fd5b506102d460048036038101906102cf9190611f22565b6109d9565b6040516102e19190611cbd565b60405180910390f35b3480156102f657600080fd5b506102ff6109fd565b60405161030c919061249b565b60405180910390f35b34801561032157600080fd5b5061033c600480360381019061033791906124e2565b610a27565b005b34801561034a57600080fd5b50610353610a3d565b6040516103609190611cbd565b60405180910390f35b34801561037557600080fd5b50610390600480360381019061038b9190612522565b610a43565b60405161039d9190611d78565b60405180910390f35b3480156103b257600080fd5b506103cd60048036038101906103c89190612562565b610ad7565b005b3480156103db57600080fd5b506103f660048036038101906103f191906125f9565b610b78565b005b60008073ffffffffffffffffffffffffffffffffffffffff168373ffffffffffffffffffffffffffffffffffffffff161415610469576040517f08c379a000000000000000000000000000000000000000000000000000000000815260040161046090612698565b60405180910390fd5b60008083815260200190815260200160002060008473ffffffffffffffffffffffffffffffffffffffff1673ffffffffffffffffffffffffffffffffffffffff16815260200190815260200160002054905092915050565b60007fd9b67a26000000000000000000000000000000000000000000000000000000007bffffffffffffffffffffffffffffffffffffffffffffffffffffffff1916827bffffffffffffffffffffffffffffffffffffffffffffffffffffffff1916148061058c57507f0e89341c000000000000000000000000000000000000000000000000000000007bffffffffffffffffffffffffffffffffffffffffffffffffffffffff1916827bffffffffffffffffffffffffffffffffffffffffffffffffffffffff1916145b8061059c575061059b82610bfc565b5b9050919050565b6105ab610c66565b6105b481610ce4565b50565b6060600280546105c6906126e7565b80601f01602080910402602001604051908101604052809291908181526020018280546105f2906126e7565b801561063f5780601f106106145761010080835404028352916020019161063f565b820191906000526020600020905b81548152906001019060200180831161062257829003601f168201915b50505050509050919050565b600680549050821115610693576040517f08c379a000000000000000000000000000000000000000000000000000000000815260040161068a90612765565b60405180910390fd5b600082116106d6576040517f08c379a00000000000000000000000000000000000000000000000000000000081526004016106cd90612765565b60405180910390fd5b600454816106e491906127b4565b341015610726576040517f08c379a000000000000000000000000000000000000000000000000000000000815260040161071d9061285a565b60405180910390fd5b6006600183610735919061287a565b81548110610746576107456128ae565b5b9060005260206000200154816005600185610761919061287a565b81548110610772576107716128ae565b5b906000526020600020015461078791906128dd565b11156107c8576040517f08c379a00000000000000000000000000000000000000000000000000000000081526004016107bf9061297f565b60405180910390fd5b6107e333838360405180602001604052806000815250610cfe565b5050565b600681815481106107f757600080fd5b906000526020600020016000915090505481565b610813610eaf565b73ffffffffffffffffffffffffffffffffffffffff168573ffffffffffffffffffffffffffffffffffffffff161480610859575061085885610853610eaf565b610a43565b5b610898576040517f08c379a000000000000000000000000000000000000000000000000000000000815260040161088f90612a11565b60405180910390fd5b6108a58585858585610eb7565b5050505050565b606081518351146108f2576040517f08c379a00000000000000000000000000000000000000000000000000000000081526004016108e990612aa3565b60405180910390fd5b6000835167ffffffffffffffff81111561090f5761090e611dae565b5b60405190808252806020026020018201604052801561093d5781602001602082028036833780820191505090505b50905060005b84518110156109ba5761098a858281518110610962576109616128ae565b5b602002602001015185838151811061097d5761097c6128ae565b5b60200260200101516103f8565b82828151811061099d5761099c6128ae565b5b602002602001018181525050806109b390612ac3565b9050610943565b508091505092915050565b6109cd610c66565b6109d760006111d9565b565b600581815481106109e957600080fd5b906000526020600020016000915090505481565b6000600360009054906101000a900473ffffffffffffffffffffffffffffffffffffffff16905090565b610a39610a32610eaf565b838361129f565b5050565b60045481565b6000600160008473ffffffffffffffffffffffffffffffffffffffff1673ffffffffffffffffffffffffffffffffffffffff16815260200190815260200160002060008373ffffffffffffffffffffffffffffffffffffffff1673ffffffffffffffffffffffffffffffffffffffff16815260200190815260200160002060009054906101000a900460ff16905092915050565b610adf610eaf565b73ffffffffffffffffffffffffffffffffffffffff168573ffffffffffffffffffffffffffffffffffffffff161480610b255750610b2485610b1f610eaf565b610a43565b5b610b64576040517f08c379a0000000000000000000000000000000000000000000000000000000008152600401610b5b90612a11565b60405180910390fd5b610b71858585858561140c565b5050505050565b610b80610c66565b600073ffffffffffffffffffffffffffffffffffffffff168173ffffffffffffffffffffffffffffffffffffffff161415610bf0576040517f08c379a0000000000000000000000000000000000000000000000000000000008152600401610be790612b7e565b60405180910390fd5b610bf9816111d9565b50565b60007f01ffc9a7000000000000000000000000000000000000000000000000000000007bffffffffffffffffffffffffffffffffffffffffffffffffffffffff1916827bffffffffffffffffffffffffffffffffffffffffffffffffffffffff1916149050919050565b610c6e610eaf565b73ffffffffffffffffffffffffffffffffffffffff16610c8c6109fd565b73ffffffffffffffffffffffffffffffffffffffff1614610ce2576040517f08c379a0000000000000000000000000000000000000000000000000000000008152600401610cd990612bea565b60405180910390fd5b565b8060029080519060200190610cfa929190611b23565b5050565b600073ffffffffffffffffffffffffffffffffffffffff168473ffffffffffffffffffffffffffffffffffffffff161415610d6e576040517f08c379a0000000000000000000000000000000000000000000000000000000008152600401610d6590612c7c565b60405180910390fd5b6000610d78610eaf565b90506000610d85856116a8565b90506000610d92856116a8565b9050610da383600089858589611722565b8460008088815260200190815260200160002060008973ffffffffffffffffffffffffffffffffffffffff1673ffffffffffffffffffffffffffffffffffffffff1681526020019081526020016000206000828254610e0291906128dd565b925050819055508673ffffffffffffffffffffffffffffffffffffffff16600073ffffffffffffffffffffffffffffffffffffffff168473ffffffffffffffffffffffffffffffffffffffff167fc3d58168c5ae7397731d063d5bbf3d657854427343f4c083240f7aacaa2d0f628989604051610e80929190612c9c565b60405180910390a4610e978360008985858961172a565b610ea683600089898989611732565b50505050505050565b600033905090565b8151835114610efb576040517f08c379a0000000000000000000000000000000000000000000000000000000008152600401610ef290612d37565b60405180910390fd5b600073ffffffffffffffffffffffffffffffffffffffff168473ffffffffffffffffffffffffffffffffffffffff161415610f6b576040517f08c379a0000000000000000000000000000000000000000000000000000000008152600401610f6290612dc9565b60405180910390fd5b6000610f75610eaf565b9050610f85818787878787611722565b60005b8451811015611136576000858281518110610fa657610fa56128ae565b5b602002602001015190506000858381518110610fc557610fc46128ae565b5b60200260200101519050600080600084815260200190815260200160002060008b73ffffffffffffffffffffffffffffffffffffffff1673ffffffffffffffffffffffffffffffffffffffff16815260200190815260200160002054905081811015611066576040517f08c379a000000000000000000000000000000000000000000000000000000000815260040161105d90612e5b565b60405180910390fd5b81810360008085815260200190815260200160002060008c73ffffffffffffffffffffffffffffffffffffffff1673ffffffffffffffffffffffffffffffffffffffff168152602001908152602001600020819055508160008085815260200190815260200160002060008b73ffffffffffffffffffffffffffffffffffffffff1673ffffffffffffffffffffffffffffffffffffffff168152602001908152602001600020600082825461111b91906128dd565b925050819055505050508061112f90612ac3565b9050610f88565b508473ffffffffffffffffffffffffffffffffffffffff168673ffffffffffffffffffffffffffffffffffffffff168273ffffffffffffffffffffffffffffffffffffffff167f4a39dc06d4c0dbc64b70af90fd698a233a518aa5d07e595d983b8c0526c8f7fb87876040516111ad929190612e7b565b60405180910390a46111c381878787878761172a565b6111d1818787878787611919565b505050505050565b6000600360009054906101000a900473ffffffffffffffffffffffffffffffffffffffff16905081600360006101000a81548173ffffffffffffffffffffffffffffffffffffffff021916908373ffffffffffffffffffffffffffffffffffffffff1602179055508173ffffffffffffffffffffffffffffffffffffffff168173ffffffffffffffffffffffffffffffffffffffff167f8be0079c531659141344cd1fd0a4f28419497f9722a3daafe3b4186f6b6457e060405160405180910390a35050565b8173ffffffffffffffffffffffffffffffffffffffff168373ffffffffffffffffffffffffffffffffffffffff16141561130e576040517f08c379a000000000000000000000000000000000000000000000000000000000815260040161130590612f24565b60405180910390fd5b80600160008573ffffffffffffffffffffffffffffffffffffffff1673ffffffffffffffffffffffffffffffffffffffff16815260200190815260200160002060008473ffffffffffffffffffffffffffffffffffffffff1673ffffffffffffffffffffffffffffffffffffffff16815260200190815260200160002060006101000a81548160ff0219169083151502179055508173ffffffffffffffffffffffffffffffffffffffff168373ffffffffffffffffffffffffffffffffffffffff167f17307eab39ab6107e8899845ad3d59bd9653f200f220920489ca2b5937696c31836040516113ff9190611d78565b60405180910390a3505050565b600073ffffffffffffffffffffffffffffffffffffffff168473ffffffffffffffffffffffffffffffffffffffff16141561147c576040517f08c379a000000000000000000000000000000000000000000000000000000000815260040161147390612dc9565b60405180910390fd5b6000611486610eaf565b90506000611493856116a8565b905060006114a0856116a8565b90506114b0838989858589611722565b600080600088815260200190815260200160002060008a73ffffffffffffffffffffffffffffffffffffffff1673ffffffffffffffffffffffffffffffffffffffff16815260200190815260200160002054905085811015611547576040517f08c379a000000000000000000000000000000000000000000000000000000000815260040161153e90612e5b565b60405180910390fd5b85810360008089815260200190815260200160002060008b73ffffffffffffffffffffffffffffffffffffffff1673ffffffffffffffffffffffffffffffffffffffff168152602001908152602001600020819055508560008089815260200190815260200160002060008a73ffffffffffffffffffffffffffffffffffffffff1673ffffffffffffffffffffffffffffffffffffffff16815260200190815260200160002060008282546115fc91906128dd565b925050819055508773ffffffffffffffffffffffffffffffffffffffff168973ffffffffffffffffffffffffffffffffffffffff168573ffffffffffffffffffffffffffffffffffffffff167fc3d58168c5ae7397731d063d5bbf3d657854427343f4c083240f7aacaa2d0f628a8a604051611679929190612c9c565b60405180910390a461168f848a8a86868a61172a565b61169d848a8a8a8a8a611732565b505050505050505050565b60606000600167ffffffffffffffff8111156116c7576116c6611dae565b5b6040519080825280602002602001820160405280156116f55781602001602082028036833780820191505090505b509050828160008151811061170d5761170c6128ae565b5b60200260200101818152505080915050919050565b505050505050565b505050505050565b6117518473ffffffffffffffffffffffffffffffffffffffff16611b00565b15611911578373ffffffffffffffffffffffffffffffffffffffff1663f23a6e6187878686866040518663ffffffff1660e01b8152600401611797959493929190612f99565b602060405180830381600087803b1580156117b157600080fd5b505af19250505080156117e257506040513d601f19601f820116820180604052508101906117df9190613008565b60015b611888576117ee613042565b806308c379a0141561184b5750611803613064565b8061180e575061184d565b806040517f08c379a00000000000000000000000000000000000000000000000000000000081526004016118429190611fd7565b60405180910390fd5b505b6040517f08c379a000000000000000000000000000000000000000000000000000000000815260040161187f9061316c565b60405180910390fd5b63f23a6e6160e01b7bffffffffffffffffffffffffffffffffffffffffffffffffffffffff1916817bffffffffffffffffffffffffffffffffffffffffffffffffffffffff19161461190f576040517f08c379a0000000000000000000000000000000000000000000000000000000008152600401611906906131fe565b60405180910390fd5b505b505050505050565b6119388473ffffffffffffffffffffffffffffffffffffffff16611b00565b15611af8578373ffffffffffffffffffffffffffffffffffffffff1663bc197c8187878686866040518663ffffffff1660e01b815260040161197e95949392919061321e565b602060405180830381600087803b15801561199857600080fd5b505af19250505080156119c957506040513d601f19601f820116820180604052508101906119c69190613008565b60015b611a6f576119d5613042565b806308c379a01415611a3257506119ea613064565b806119f55750611a34565b806040517f08c379a0000000000000000000000000000000000000000000000000000000008152600401611a299190611fd7565b60405180910390fd5b505b6040517f08c379a0000000000000000000000000000000000000000000000000000000008152600401611a669061316c565b60405180910390fd5b63bc197c8160e01b7bffffffffffffffffffffffffffffffffffffffffffffffffffffffff1916817bffffffffffffffffffffffffffffffffffffffffffffffffffffffff191614611af6576040517f08c379a0000000000000000000000000000000000000000000000000000000008152600401611aed906131fe565b60405180910390fd5b505b505050505050565b6000808273ffffffffffffffffffffffffffffffffffffffff163b119050919050565b828054611b2f906126e7565b90600052602060002090601f016020900481019282611b515760008555611b98565b82601f10611b6a57805160ff1916838001178555611b98565b82800160010185558215611b98579182015b82811115611b97578251825591602001919060010190611b7c565b5b509050611ba59190611ba9565b5090565b5b80821115611bc2576000816000905550600101611baa565b5090565b6000604051905090565b600080fd5b600080fd5b600073ffffffffffffffffffffffffffffffffffffffff82169050919050565b6000611c0582611bda565b9050919050565b611c1581611bfa565b8114611c2057600080fd5b50565b600081359050611c3281611c0c565b92915050565b6000819050919050565b611c4b81611c38565b8114611c5657600080fd5b50565b600081359050611c6881611c42565b92915050565b60008060408385031215611c8557611c84611bd0565b5b6000611c9385828601611c23565b9250506020611ca485828601611c59565b9150509250929050565b611cb781611c38565b82525050565b6000602082019050611cd26000830184611cae565b92915050565b60007fffffffff0000000000000000000000000000000000000000000000000000000082169050919050565b611d0d81611cd8565b8114611d1857600080fd5b50565b600081359050611d2a81611d04565b92915050565b600060208284031215611d4657611d45611bd0565b5b6000611d5484828501611d1b565b91505092915050565b60008115159050919050565b611d7281611d5d565b82525050565b6000602082019050611d8d6000830184611d69565b92915050565b600080fd5b600080fd5b6000601f19601f8301169050919050565b7f4e487b7100000000000000000000000000000000000000000000000000000000600052604160045260246000fd5b611de682611d9d565b810181811067ffffffffffffffff82111715611e0557611e04611dae565b5b80604052505050565b6000611e18611bc6565b9050611e248282611ddd565b919050565b600067ffffffffffffffff821115611e4457611e43611dae565b5b611e4d82611d9d565b9050602081019050919050565b82818337600083830152505050565b6000611e7c611e7784611e29565b611e0e565b905082815260208101848484011115611e9857611e97611d98565b5b611ea3848285611e5a565b509392505050565b600082601f830112611ec057611ebf611d93565b5b8135611ed0848260208601611e69565b91505092915050565b600060208284031215611eef57611eee611bd0565b5b600082013567ffffffffffffffff811115611f0d57611f0c611bd5565b5b611f1984828501611eab565b91505092915050565b600060208284031215611f3857611f37611bd0565b5b6000611f4684828501611c59565b91505092915050565b600081519050919050565b600082825260208201905092915050565b60005b83811015611f89578082015181840152602081019050611f6e565b83811115611f98576000848401525b50505050565b6000611fa982611f4f565b611fb38185611f5a565b9350611fc3818560208601611f6b565b611fcc81611d9d565b840191505092915050565b60006020820190508181036000830152611ff18184611f9e565b905092915050565b600080604083850312156120105761200f611bd0565b5b600061201e85828601611c59565b925050602061202f85828601611c59565b9150509250929050565b600067ffffffffffffffff82111561205457612053611dae565b5b602082029050602081019050919050565b600080fd5b600061207d61207884612039565b611e0e565b905080838252602082019050602084028301858111156120a05761209f612065565b5b835b818110156120c957806120b58882611c59565b8452602084019350506020810190506120a2565b5050509392505050565b600082601f8301126120e8576120e7611d93565b5b81356120f884826020860161206a565b91505092915050565b600067ffffffffffffffff82111561211c5761211b611dae565b5b61212582611d9d565b9050602081019050919050565b600061214561214084612101565b611e0e565b90508281526020810184848401111561216157612160611d98565b5b61216c848285611e5a565b509392505050565b600082601f83011261218957612188611d93565b5b8135612199848260208601612132565b91505092915050565b600080600080600060a086880312156121be576121bd611bd0565b5b60006121cc88828901611c23565b95505060206121dd88828901611c23565b945050604086013567ffffffffffffffff8111156121fe576121fd611bd5565b5b61220a888289016120d3565b935050606086013567ffffffffffffffff81111561222b5761222a611bd5565b5b612237888289016120d3565b925050608086013567ffffffffffffffff81111561225857612257611bd5565b5b61226488828901612174565b9150509295509295909350565b600067ffffffffffffffff82111561228c5761228b611dae565b5b602082029050602081019050919050565b60006122b06122ab84612271565b611e0e565b905080838252602082019050602084028301858111156122d3576122d2612065565b5b835b818110156122fc57806122e88882611c23565b8452602084019350506020810190506122d5565b5050509392505050565b600082601f83011261231b5761231a611d93565b5b813561232b84826020860161229d565b91505092915050565b6000806040838503121561234b5761234a611bd0565b5b600083013567ffffffffffffffff81111561236957612368611bd5565b5b61237585828601612306565b925050602083013567ffffffffffffffff81111561239657612395611bd5565b5b6123a2858286016120d3565b9150509250929050565b600081519050919050565b600082825260208201905092915050565b6000819050602082019050919050565b6123e181611c38565b82525050565b60006123f383836123d8565b60208301905092915050565b6000602082019050919050565b6000612417826123ac565b61242181856123b7565b935061242c836123c8565b8060005b8381101561245d57815161244488826123e7565b975061244f836123ff565b925050600181019050612430565b5085935050505092915050565b60006020820190508181036000830152612484818461240c565b905092915050565b61249581611bfa565b82525050565b60006020820190506124b0600083018461248c565b92915050565b6124bf81611d5d565b81146124ca57600080fd5b50565b6000813590506124dc816124b6565b92915050565b600080604083850312156124f9576124f8611bd0565b5b600061250785828601611c23565b9250506020612518858286016124cd565b9150509250929050565b6000806040838503121561253957612538611bd0565b5b600061254785828601611c23565b925050602061255885828601611c23565b9150509250929050565b600080600080600060a0868803121561257e5761257d611bd0565b5b600061258c88828901611c23565b955050602061259d88828901611c23565b94505060406125ae88828901611c59565b93505060606125bf88828901611c59565b925050608086013567ffffffffffffffff8111156125e0576125df611bd5565b5b6125ec88828901612174565b9150509295509295909350565b60006020828403121561260f5761260e611bd0565b5b600061261d84828501611c23565b91505092915050565b7f455243313135353a2061646472657373207a65726f206973206e6f742061207660008201527f616c6964206f776e657200000000000000000000000000000000000000000000602082015250565b6000612682602a83611f5a565b915061268d82612626565b604082019050919050565b600060208201905081810360008301526126b181612675565b9050919050565b7f4e487b7100000000000000000000000000000000000000000000000000000000600052602260045260246000fd5b600060028204905060018216806126ff57607f821691505b60208210811415612713576127126126b8565b5b50919050565b7f546f6b656e20646f65736e277420657869737400000000000000000000000000600082015250565b600061274f601383611f5a565b915061275a82612719565b602082019050919050565b6000602082019050818103600083015261277e81612742565b9050919050565b7f4e487b7100000000000000000000000000000000000000000000000000000000600052601160045260246000fd5b60006127bf82611c38565b91506127ca83611c38565b9250817fffffffffffffffffffffffffffffffffffffffffffffffffffffffffffffffff048311821515161561280357612802612785565b5b828202905092915050565b7f4e6f7420656e6f7567682065746865722073656e740000000000000000000000600082015250565b6000612844601583611f5a565b915061284f8261280e565b602082019050919050565b6000602082019050818103600083015261287381612837565b9050919050565b600061288582611c38565b915061289083611c38565b9250828210156128a3576128a2612785565b5b828203905092915050565b7f4e487b7100000000000000000000000000000000000000000000000000000000600052603260045260246000fd5b60006128e882611c38565b91506128f383611c38565b9250827fffffffffffffffffffffffffffffffffffffffffffffffffffffffffffffffff0382111561292857612927612785565b5b828201905092915050565b7f6e6f7420656e6f7567687420737570706c79206c656674000000000000000000600082015250565b6000612969601783611f5a565b915061297482612933565b602082019050919050565b600060208201905081810360008301526129988161295c565b9050919050565b7f455243313135353a2063616c6c6572206973206e6f7420746f6b656e206f776e60008201527f6572206f7220617070726f766564000000000000000000000000000000000000602082015250565b60006129fb602e83611f5a565b9150612a068261299f565b604082019050919050565b60006020820190508181036000830152612a2a816129ee565b9050919050565b7f455243313135353a206163636f756e747320616e6420696473206c656e67746860008201527f206d69736d617463680000000000000000000000000000000000000000000000602082015250565b6000612a8d602983611f5a565b9150612a9882612a31565b604082019050919050565b60006020820190508181036000830152612abc81612a80565b9050919050565b6000612ace82611c38565b91507fffffffffffffffffffffffffffffffffffffffffffffffffffffffffffffffff821415612b0157612b00612785565b5b600182019050919050565b7f4f776e61626c653a206e6577206f776e657220697320746865207a65726f206160008201527f6464726573730000000000000000000000000000000000000000000000000000602082015250565b6000612b68602683611f5a565b9150612b7382612b0c565b604082019050919050565b60006020820190508181036000830152612b9781612b5b565b9050919050565b7f4f776e61626c653a2063616c6c6572206973206e6f7420746865206f776e6572600082015250565b6000612bd4602083611f5a565b9150612bdf82612b9e565b602082019050919050565b60006020820190508181036000830152612c0381612bc7565b9050919050565b7f455243313135353a206d696e7420746f20746865207a65726f2061646472657360008201527f7300000000000000000000000000000000000000000000000000000000000000602082015250565b6000612c66602183611f5a565b9150612c7182612c0a565b604082019050919050565b60006020820190508181036000830152612c9581612c59565b9050919050565b6000604082019050612cb16000830185611cae565b612cbe6020830184611cae565b9392505050565b7f455243313135353a2069647320616e6420616d6f756e7473206c656e6774682060008201527f6d69736d61746368000000000000000000000000000000000000000000000000602082015250565b6000612d21602883611f5a565b9150612d2c82612cc5565b604082019050919050565b60006020820190508181036000830152612d5081612d14565b9050919050565b7f455243313135353a207472616e7366657220746f20746865207a65726f20616460008201527f6472657373000000000000000000000000000000000000000000000000000000602082015250565b6000612db3602583611f5a565b9150612dbe82612d57565b604082019050919050565b60006020820190508181036000830152612de281612da6565b9050919050565b7f455243313135353a20696e73756666696369656e742062616c616e636520666f60008201527f72207472616e7366657200000000000000000000000000000000000000000000602082015250565b6000612e45602a83611f5a565b9150612e5082612de9565b604082019050919050565b60006020820190508181036000830152612e7481612e38565b9050919050565b60006040820190508181036000830152612e95818561240c565b90508181036020830152612ea9818461240c565b90509392505050565b7f455243313135353a2073657474696e6720617070726f76616c2073746174757360008201527f20666f722073656c660000000000000000000000000000000000000000000000602082015250565b6000612f0e602983611f5a565b9150612f1982612eb2565b604082019050919050565b60006020820190508181036000830152612f3d81612f01565b9050919050565b600081519050919050565b600082825260208201905092915050565b6000612f6b82612f44565b612f758185612f4f565b9350612f85818560208601611f6b565b612f8e81611d9d565b840191505092915050565b600060a082019050612fae600083018861248c565b612fbb602083018761248c565b612fc86040830186611cae565b612fd56060830185611cae565b8181036080830152612fe78184612f60565b90509695505050505050565b60008151905061300281611d04565b92915050565b60006020828403121561301e5761301d611bd0565b5b600061302c84828501612ff3565b91505092915050565b60008160e01c9050919050565b600060033d11156130615760046000803e61305e600051613035565b90505b90565b600060443d1015613074576130f7565b61307c611bc6565b60043d036004823e80513d602482011167ffffffffffffffff821117156130a45750506130f7565b808201805167ffffffffffffffff8111156130c257505050506130f7565b80602083010160043d0385018111156130df5750505050506130f7565b6130ee82602001850186611ddd565b82955050505050505b90565b7f455243313135353a207472616e7366657220746f206e6f6e2d4552433131353560008201527f526563656976657220696d706c656d656e746572000000000000000000000000602082015250565b6000613156603483611f5a565b9150613161826130fa565b604082019050919050565b6000602082019050818103600083015261318581613149565b9050919050565b7f455243313135353a204552433131353552656365697665722072656a6563746560008201527f6420746f6b656e73000000000000000000000000000000000000000000000000602082015250565b60006131e8602883611f5a565b91506131f38261318c565b604082019050919050565b60006020820190508181036000830152613217816131db565b9050919050565b600060a082019050613233600083018861248c565b613240602083018761248c565b8181036040830152613252818661240c565b90508181036060830152613266818561240c565b9050818103608083015261327a8184612f60565b9050969550505050505056fea264697066735822122092f2ade840d53d145e781bbbcf179b1e1f74834a4daac0db4722ac57dd0a0fb464736f6c63430008090033",
  "immutableReferences": {},
  "source": "// SPDX-License-Identifier: MIT\r\npragma solidity ^0.8.9;\r\nimport \"@openzeppelin/contracts/token/ERC1155/ERC1155.sol\";\r\nimport \"@openzeppelin/contracts/access/Ownable.sol\";\r\n\r\ncontract MyToken is ERC1155, Ownable {\r\n    constructor() ERC1155(\"\") {}\r\n\r\n    uint256 public mintRate = 0.005 ether;\r\n    uint256[] public minted = [0, 0, 0];\r\n    uint256[] public supplies = [10, 10, 50];\r\n\r\n    function setURI(string memory newuri) public onlyOwner {\r\n        _setURI(newuri);\r\n    }\r\n\r\n    function mint(uint256 id, uint256 amount) public payable {\r\n        require(id <= supplies.length, \"Token doesn't exist\");\r\n        require(id > 0, \"Token doesn't exist\");\r\n        require(msg.value >= (amount * mintRate), \"Not enough ether sent\");\r\n        require(\r\n            minted[id - 1] + amount <= supplies[id - 1],\r\n            \"not enought supply left\"\r\n        );\r\n        _mint(msg.sender, id, amount, \"\");\r\n    }\r\n}\r\n",
  "sourcePath": "C:\\Users\\HY\\Desktop\\music_NFT_project\\code\\contracts\\Test.sol",
  "compiler": {
    "name": "solc",
    "version": "0.8.9+commit.e5eed63a.Emscripten.clang"
  },
  "schemaVersion": "3.4.11",
  "updatedAt": "2023-01-06T08:34:20.560Z",
  "devdoc": {
    "kind": "dev",
    "methods": {
      "balanceOf(address,uint256)": {
        "details": "See {IERC1155-balanceOf}. Requirements: - `account` cannot be the zero address."
      },
      "balanceOfBatch(address[],uint256[])": {
        "details": "See {IERC1155-balanceOfBatch}. Requirements: - `accounts` and `ids` must have the same length."
      },
      "isApprovedForAll(address,address)": {
        "details": "See {IERC1155-isApprovedForAll}."
      },
      "owner()": {
        "details": "Returns the address of the current owner."
      },
      "renounceOwnership()": {
        "details": "Leaves the contract without owner. It will not be possible to call `onlyOwner` functions anymore. Can only be called by the current owner. NOTE: Renouncing ownership will leave the contract without an owner, thereby removing any functionality that is only available to the owner."
      },
      "safeBatchTransferFrom(address,address,uint256[],uint256[],bytes)": {
        "details": "See {IERC1155-safeBatchTransferFrom}."
      },
      "safeTransferFrom(address,address,uint256,uint256,bytes)": {
        "details": "See {IERC1155-safeTransferFrom}."
      },
      "setApprovalForAll(address,bool)": {
        "details": "See {IERC1155-setApprovalForAll}."
      },
      "supportsInterface(bytes4)": {
        "details": "See {IERC165-supportsInterface}."
      },
      "transferOwnership(address)": {
        "details": "Transfers ownership of the contract to a new account (`newOwner`). Can only be called by the current owner."
      },
      "uri(uint256)": {
        "details": "See {IERC1155MetadataURI-uri}. This implementation returns the same URI for *all* token types. It relies on the token type ID substitution mechanism https://eips.ethereum.org/EIPS/eip-1155#metadata[defined in the EIP]. Clients calling this function must replace the `\\{id\\}` substring with the actual token type ID."
      }
    },
    "version": 1
  },
  "userdoc": {
    "kind": "user",
    "methods": {},
    "version": 1
  }
}